S00B00004144432E7372656351
S11300000C942A000C9434000C9434000C943400A6
S11300100C9434000C9434000C9434000C9434008C
S11300200C9434000C9434000C9434000C9434007C
S11300300C9434000C9434000C9434000C9434006C
S11300400C9434000C9434000C9434000C9434005C
S11300500C94340011241FBECFE5D8E0DEBFCDBF21
S11300600E944D000C9452000C9400008AB3887FC7
S11300708ABB309A319A329A3E9A3F9887B1807EF1
S113008087B93D98339A7894379A369A089586B109
S113009084B125B190E0922B08950E9436000E940D
S10B00A04700FDCFF894FFCFE7
S9030000FC
